:020000040800F2
:10000000680800204D020008BB1C0008971B000870
:10001000B91C00086D050008491E0008000000001A
:10002000000000000000000000000000BF1C0008ED
:100030000506000800000000BD1C0008C11C0008E7
:1000400067020008670200086702000867020008EC
:1000500067020008670200086702000867020008DC
:1000600067020008670200086702000867020008CC
:1000700067020008670200086702000867020008BC
:1000800067020008670200086702000867020008AC
:10009000670200086702000867020008670200089C
:1000A000670200086702000867020008670200088C
:1000B000670200086702000867020008670200087C
:1000C000670200086702000867020008670200086C
:1000D000670200086702000867020008670200085C
:1000E000670200086702000867020008670200084C
:1000F00067020008751D0008670200086702000813
:10010000670200086702000867020008670200082B
:10011000670200086702000867020008670200081B
:1001200071050008670200087D05000867020008E5
:1001300067020008670200086702000867020008FB
:1001400067020008670200086702000867020008EB
:1001500067020008670200086702000867020008DB
:1001600067020008670200086702000867020008CB
:1001700067020008670200086702000867020008BB
:1001800067020008670200086702000867020008AB
:10019000670200086702000867020008670200089B
:1001A00067020008670200086702000800F002F812
:1001B00000F03CF80AA090E8000C82448344AAF1C5
:1001C0000107DA4501D100F031F8AFF2090EBAE8C3
:1001D0000F0013F0010F18BFFB1A43F0010318477B
:1001E000901D0000B01D0000103A24BF78C878C1EF
:1001F000FAD8520724BF30C830C144BF04680C602D
:10020000704700000023002400250026103A28BF74
:1002100078C1FBD8520728BF30C148BF0B60704778
:100220001FB501F08FFE1FBD10B510BD00F0CFF857
:100230001146FFF7F5FF01F019FE00F0EDF803B4E9
:10024000FFF7F2FF03BC00F0F5F800000948804713
:1002500009480047FEE7FEE7FEE7FEE7FEE7FEE7A8
:10026000FEE7FEE7FEE7FEE704480549054A064BC0
:1002700070470000651D0008AD01000868020020FD
:1002800068080020680400206804002053EA020C7B
:1002900000F069802DE9F04B4FF00006002B1FBFE6
:1002A000B3FA83F503FA05F424FA05F65E4012BFAB
:1002B0001643B2FA82F502FA05F4C5F120051EBF15
:1002C00022FA05FC44EA0C04203556EA044C4FEAB5
:1002D000144418BF641C4FF000084FF0000990420E
:1002E00071EB030C39D3002919BFB1FA81F701FA78
:1002F00007F6B0FA80F700FA07F6C7F120071EBF2D
:1003000020FA07FC46EA0C062037B6FBF4FCA7EB04
:100310000507103F07F01F0BCBF120060CFA0BFB73
:100320002CFA06F644BFB3460026202FA4BF5E4633
:100330004FF0000B5BEA060C08BF4FF0010B19EB06
:100340000B09ABFB027C48EB0608C01B06FB02CC8A
:100350000BFB03CC71EB0C01C1E70B460246414697
:100360004846BDE8F08B13B54FF000004FF0000198
:10037000AFF30080BDE81C4070474FF0000200B5AD
:10038000134694469646203922BFA0E80C50A0E8B8
:100390000C50B1F12001BFF4F7AF090728BFA0E866
:1003A0000C5048BF0CC05DF804EB890028BF40F832
:1003B000042B08BF704748BF20F8022B11F0804F74
:1003C00018BF00F8012B704770477047704775469B
:1003D00000F02CF8AE4605006946534620F00700B1
:1003E000854618B020B5FFF73FFFBDE820404FF02D
:1003F00000064FF000074FF000084FF0000B21F00F
:100400000701AC46ACE8C009ACE8C009ACE8C009DB
:10041000ACE8C0098D46704710B50446AFF30080C4
:100420002046BDE81040FFF70ABF000000487047B3
:100430000402002001491820ABBEFEE7260002009E
:1004400070470000464910B54A6822F440324A60BD
:100450004A6843681A434A6001684A6822F4807215
:100460004A6001684A68036942EA03224A600168F7
:100470004A6822F040724A6001684A6883681A43F9
:100480004A6001688A6822F400628A6001688A68AA
:10049000C3681A438A60816A6FF07062D142016852
:1004A0008A6822F070628A6001688A680CD0836A68
:1004B0001A438A6001688A6822F040528A600168A3
:1004C0008A68C36A1A4301E022F040528A600168D8
:1004D0008A6822F002028A6001688A68037E42EA22
:1004E00043028A6090F82010002901684A680FD002
:1004F00042F400624A6001684A6822F460424A603D
:1005000001684A68174C436A04EB43331A4301E01D
:1005100022F400624A600168CA6A22F47002CA6268
:100520000168CA6A838B104C04EB03531A43CA62F6
:1005300001688A6822F400728A6001688A6890F80B
:10054000303042EA43228A6001688A6822F480627D
:100550008A6001688A68406942EA8020886010BD2C
:100560000023014000E0FFFF0000F0FFFEE7000075
:10057000014800F09FBA0000FC000020014800F094
:1005800099BA00005C01002001681823CAB2103A31
:10059000B2FBF3F2054B6FF30901032A9B5CC365C1
:1005A00000D9091D81650846704700004E1F0008EC
:1005B00010B5014600208B698A6A4FF0C07453B1B0
:1005C000B3F5005F15D072B1012A0CD0022A0AD00F
:1005D000032A09D104E01AB1012A06D0022A03D164
:1005E000C96AC90100D5012010BDC96AA142FAD06B
:1005F00010BD002AF7D0012AF2D0022AF3D0032A34
:10060000F3D010BD704772B6FEE7000078B5002445
:10061000009490F83C20012A19D0012280F83C2057
:100620000A6807230568092A13D9EE680A3A02EB1B
:10063000420293409E43EE600B788A680A3B03EBCC
:1006400043039A400368DD682A43DA6010E0022021
:1006500078BD2E6902EB420293409E432E610B78D7
:100660008A6803EB43039A4003681D692A431A61B1
:100670004A681F23072A13D205686E6B521E02EBCD
:10068000820293409E436E630A8893B20A79521E97
:1006900002EB820293400268556B2B43536327E0C1
:1006A00005680D2A12D22E6BD21F02EB82029340F4
:1006B0009E432E630B790A88DB1F92B203EB830300
:1006C0009A4003681D6B2A431A6311E0EE6A0D3AE3
:1006D00002EB820293409E43EE620B790A880D3B47
:1006E00092B203EB83039A400368DD6A2A43DA621D
:1006F0001B4B0568194A9D420AD10D68122D07D17E
:10070000556825F400055560556845F48005556029
:1007100005689D421DD1134D0B68AB4201D0112BD2
:1007200017D1536823F480035360536843F40003E4
:1007300053600968A9420CD10B490C4A0968B1FB06
:10074000F2F101EB8101490000E0491E009100290E
:10075000FBD180F83C40002078BD00000023014020
:1007600000200140120000101400002040420F0041
:100770000068C06C704770B504004FF0000503D0EE
:10078000206C002610B107E0012070BD204600F06B
:100790001DF8666484F83C60206CC00610D4206CA0
:1007A00020F4885040F0020020642046FFF74AFE03
:1007B0006664206C20F0020040F00100206400E03C
:1007C000012584F83C60284670BD00002DE9F04703
:1007D00086B0064614216846FFF7CFFD3648DFF89D
:1007E000D4C014383468002533490323334A07152D
:1007F0004FF480584FF480494FF4807A644528D1F3
:100800000C6844F480740C60096801F480710591EF
:10081000016841F0010101600068694600F00100D3
:10082000059001208DE82900104600F08FFA254C34
:10083000234804F10C0CC4E90005A5608CE8A0076E
:100840002562204665622EE0B463A66306B0BDE86B
:10085000F087DFF874C06445F8D10C6844F4007484
:100860000C60096801F400710591016841F0010113
:1008700001600068694600F00100059008208DE8DD
:100880002900104600F062FA104C0D4804F10C0CDF
:10089000303020604FF00070C4E901058CE8A007FB
:1008A00025622046656200F0D5F90028CCD0FFF71C
:1008B000AAFEC9E70020014044380240000002407F
:1008C00010640240FC000020002101405C01002077
:1008D0002DE9F041044600680D4681684FF000079D
:1008E00049050BD58068C00508D5206C40F0200074
:1008F000206484F83C700120BDE8F08100F040FBEA
:10090000064613E0681C11D025B100F039FB801BAE
:10091000A8420BD920680068800707D4206C40F0FB
:100920000400206484F83C700320E5E72068006838
:100930008007E7D521686FF012000860206C40F452
:10094000007020642068816811F0405F13D1217E1F
:1009500089B9C16A11F4700F02D0806840050AD4C9
:10096000206C20F480702064206CC00403D4206CC0
:1009700040F0010020640020BEE7000018B500210F
:10098000009190F83C20012A07D0012280F83C20F9
:1009900002689368DB0702D011E0022018BD93685B
:1009A00043F0010393602E4A2E4B1268B2FBF3F220
:1009B00002EB420200E0521E0092002AFBD10268C4
:1009C0009368DB0742D0036C40F20164A34343F415
:1009D0008073036453685B0505D5036C23F40053EF
:1009E00043F480530364036CDB0404D5436C23F0AD
:1009F0000603436400E0416480F83C101A496FF03C
:100A00002203136049680068CA06184906D0884264
:100A100024D1816811F0405F13D01FE08842F8D0E4
:100A2000134A904203D1D1F80423D206F1D0114ADF
:100A3000904213D1D1F8041301F01F011029E8D31B
:100A40000CE0816841F08041816007E0016C41F079
:100A500010010164416C41F001014164002018BDA6
:100A60001400002040420F000023014000200140FC
:100A7000002101400022014090F83C1001290CD0D7
:100A8000012180F83C1001688A6822F001028A6026
:100A900001688968C90702D007E002207047016C2D
:100AA00021F4885141F001010164002180F83C10DB
:100AB000084670472DE9F84304464FF00009CDF889
:100AC000009063484FF41651A56D0068B0FBF1F734
:100AD0002E6894F85C10082000FA01F131420FD022
:100AE00021680A6852070BD50A6822F004020A60DE
:100AF00094F85C108840A860606D40F0010060656B
:100B000094F85C104FF0010808FA01F0304208D068
:100B100021684969090604D5A860606D40F00200AB
:100B2000606594F85C1004208840304208D0216849
:100B30000968890704D5A860606D40F0040060650D
:100B400094F85C1010208840304218D02168096861
:100B5000090714D5A86020680168490304D5006816
:100B6000000308D5A16C07E00168C90503D401683A
:100B700021F008010160216C09B12046884794F8F2
:100B80005C1020208840304231D021680968C906B5
:100B90002DD5A86094F8350005282068016806D096
:100BA000490347D5006800031DD4616C1CE021F0A7
:100BB000160101602068416921F080014161206CCB
:100BC00008B9A06C20B12068016821F0080101601B
:100BD00094F85C103F208840A86084F8358084F841
:100BE0003490216D1FE0E16B09B120468847606DAC
:100BF00000282BD0606DC00714D0052084F8350084
:100C00002068016821F0010101600098401C0090FB
:100C1000B84203D820680068C007F6D184F8358050
:100C200084F83490E16C002910D001B02046BDE872
:100C3000F04308470168C905D5D4016821F01001C7
:100C4000016084F8358084F83490CCE7BDE8F883FF
:100C5000140000202DE9F041044600F091F9064609
:100C60005CB1022084F83500002584F834502068F7
:100C7000016821F0010101600DE00120BDE8F08173
:100C800000F07EF9801B052805D92020606503202F
:100C900084F83500F2E720680068C007F0D12268C8
:100CA000116820480140D4E901031843D4E9033610
:100CB0003343184363691843A3691843E36918432E
:100CC000236A18430843616A042903D1D4E90B134A
:100CD00019430843106020684069666A20F00701E4
:100CE00030460E43012704280CD1A06A0643E06A6F
:100CF00040B12046FFF75CFC20B14020606584F8DD
:100D00003570BAE7206846612046FFF73DFC94F84D
:100D10005C203F2191408160656584F8357000203A
:100D2000ACE700003F8010F070B5044600F028F9F1
:100D30000546601C02D004480078044400F020F905
:100D4000401BA042FAD370BD080000202DE9F84FE7
:100D5000DFF8F8A1002201240AF1040B03254FF06B
:100D60000F090BF1040E00BF0B6804FA02F63340C2
:100D7000B34270D10F7907F00307012F01D0022F82
:100D800016D187684FEA420805FA08FC27EA0C07E3
:100D9000D1F80CC00CFA08FC4CEA070CC0F808C0EB
:100DA0004768B7430E79C6F3001696403E43466047
:100DB0000E79F643B6070AD0C7684FEA420C05FA27
:100DC0000CF6B7438E6806FA0CF63E43C6600E7901
:100DD00006F00306022E10D1D60800EB8608D8F8DC
:100DE000206057074FEAD76C09FA0CF7BE430F692A
:100DF00007FA0CF73743C8F8207006684FEA420C30
:100E000005FA0CF7BE430F7907F0030707FA0CF752
:100E1000374307604E6816F4403F1CD04C4E37688D
:100E200047F480473760366822F0030706F48046AF
:100E30000096484E07EB060CDCF8086897073F0F52
:100E400009FA07F826EA0806DFF80C81404503D1C5
:100E50004FF0000841E072E0DFF80081404502D128
:100E60004FF0010839E0DFF8F880404502D14FF03B
:100E7000020832E0DFF8EC80404502D14FF0030871
:100E80002BE0DFF8E480404502D14FF0040824E075
:100E9000DFF8D880404502D14FF005081DE0DFF8AB
:100EA000D080404502D14FF0060816E0DFF8C4803C
:100EB000404502D14FF007080FE0DFF8BC80404505
:100EC00002D14FF0080808E0DFF8B080404502D1B9
:100ED0004FF0090801E04FF00A0808FA07F848EA5D
:100EE0000608CCF80888DAF800605746D1F804C044
:100EF0009E435FEACC3C00D51E433E60DBF80060B9
:100F00005F46D1F804C09E435FEA8C3C00D51E4387
:100F10003E60DEF800607746D1F804C09E435FEA89
:100F2000CC2C00D51E433E60084F0C373E68D1F8EC
:100F300004C09E435FEA8C2C00D51E433E60521CC9
:100F4000102AFFF411AFBDE8F88F0000003C01400B
:100F500044380240003001400000024000040240DA
:100F600000080240000C0240001002400014024041
:100F700000180240001C02400020024000240240F1
:100F800001488068704700000800002090F83D206C
:100F9000202A01D002207047242280F83D200268D8
:100FA000136823F0010313600268536A23F01003EF
:100FB00053620268536A0B43536201680A6842F045
:100FC00001020A60202180F83D100020704790F84F
:100FD0003D20202A01D002207047242280F83D20A5
:100FE0000268136823F00103136003685A6A22F051
:100FF0000F020A4391B2596201680A6842F0010285
:101000000A60202180F83D100020704770B5040070
:1010100025D094F83D00002520B984F83C502046A6
:1010200000F0B8F8242084F83D002068016821F021
:10103000010101602068016841F4004101602068FD
:10104000016821F40041016000F07EFA4D4A6168B8
:10105000914201D84C4900E04C49884201D201201C
:1010600070BD4B492368B0FBF1F15E6826F03F0686
:101070000E435E606368934206D94FF496735943FA
:101080004FF47A73B1FBF3F12368491C1E6A26F012
:101090003F06314319626168914210D84900401EF1
:1010A000B0FBF1F2521CC2F30B02042A01D204205D
:1010B00022E0B0FBF1F0401CC0F30B001CE0A26882
:1010C000F2B301EBC10303EB0116431EB3FBF6F3CE
:1010D0005B1C43F480431B0549D092B301EBC10272
:1010E00002EB0111401EB0FBF1F0401CC0F30B00FD
:1010F00040F4804040F400402168CA694CF6FF7318
:101100009A431043C861D4E907100143206802687C
:1011100022F0C00211430160D4E9030101432068B9
:10112000826848F2FF339A4311438160D4E9050194
:1011300008432168CA6822F0FF021043C86001E03A
:101140000EE016E02068016841F0010101602564AD
:10115000202084F83D00256384F83E50002070BDB7
:1011600001EB4106431EB3FBF6F35B1CB3E7012022
:10117000C2E701EB4101401EB0FBF1F0401CC0F39F
:101180000B00B7E7A086010080841E0000093D0027
:1011900040420F0010B586B0044614216846FFF7A0
:1011A000ECF813492068884220D1124800210268D7
:1011B00042F002020260006800F002000590C020C8
:1011C00000901220CDE90101032003900420049037
:1011D00069460948FFF7BAFD06481030016841F436
:1011E00000110160006800F40010059006B010BD09
:1011F0000054004030380240000402400248816838
:101200000278114481607047080000200B4810B537
:10121000016841F400710160016841F4806101607E
:10122000016841F480710160032000F089F80F200B
:1012300000F006F800F03EF8002010BD003C02402F
:1012400010B5014688B000222D2000F059F82D205D
:1012500000F048F813480024016841F480710160EF
:10126000006805A900F480700690684600F04CF90B
:1012700000F06AF90C494000B0FBF1F10C480B4A50
:10128000491E026040F2E732C0E90324C0E90114BC
:1012900000F052FB10B1012008B010BD044800F06E
:1012A00079FBF9E74038024040420F00002000403F
:1012B000BC0100200A4808B5016841F48041016082
:1012C000006800F4804000900548001F016841F06C
:1012D00080510160006800F08050009008BD00005F
:1012E00044380240002809DB00F01F020121914030
:1012F0004009800000F1E020C0F8001170470000B4
:10130000F0B40E4B1B680C46C3F30223C3F1070570
:10131000042D00D90425191D072901D2002300E05E
:10132000DB1E012606FA05F1491E214099409E4028
:10133000761E16403143F0BC00F087BD0CED00E096
:10134000064900F0070208684FF6FF03184040EA1C
:101350000220034A10430860704700000CED00E0D3
:101360000000FA052DE9F8431748016841F0805163
:1013700001600068154F00F08050012600903E6427
:10138000FFF7FEFD05464FF47A78114C05E000BFEB
:10139000FFF7F6FD401B40450DD86068C003F7D548
:1013A0007E64FFF7EDFD0546464607E0FFF7E8FDE2
:1013B000401BB04202D90320BDE8F8836068800377
:1013C000F4D50020F8E700004038024000000E424B
:1013D000007000402DE9F0470E46050065D0DFF8AB
:1013E0001481D8F80000F7B200F00F00B04207D225
:1013F00088F80070D8F8000000F00F00B04254D117
:1014000028683D4C810712D5400703D5206840F479
:10141000E05020602878000703D5206840F4604041
:1014200020602068A96820F0F00008432060287838
:10143000C0072DD0304968680839012812D0022829
:1014400013D0032811D00968890700292DDA2168F3
:1014500021F0030101432160FFF792FD814641F233
:10146000883A0EE009688903EFE709688901ECE72B
:10147000FFF786FDA0EB0901514502D90320BDE825
:10148000F0872068696800F00C00B0EB810FEFD1A5
:10149000D8F80010404601F00F01B14207D907709B
:1014A000006800F00F00B04201D00120E7E7287883
:1014B000400705D52068E96820F4E0500843206023
:1014C0002878000706D52068296920F4604040EAA2
:1014D000C100206000F048F82168084AC1F30311F8
:1014E000515CC8400649086006480068FFF7A8FE3E
:1014F0000020C4E7003C024008380240561F0008A4
:10150000140000200C0000200F2202600C4A136817
:1015100003F003034360136803F0F0038360136870
:1015200003F4E053C36012684FF4E05303EAD202BD
:1015300002610448006800F00F0008607047000076
:1015400008380240003C0240044805490068096828
:10155000044AC1F38221515CC84070471400002046
:1015600008380240661F0008154810B5006810F0E2
:101570000C02144813D04110042A0FD0082A0ED1AF
:101580000F4C241F2268236802F03F025B0207D53C
:101590002068C0F38810A0FB010106E0084610BDDA
:1015A0002168C1F38811A1FB00010023FEF76EFE44
:1015B0002168C1F30141491C4900B0FBF1F010BDA5
:1015C000083802400024F4002DE9F84F04006ED0E2
:1015D0002078DFF84C93C007A9F104054AD009F13F
:1015E00004000168C1F38101012908D00068C0F33B
:1015F000810002280AD1D9F80000400206D52868E7
:10160000800337D560680028E1D033E06068B0F52A
:10161000803F10D0B0F5A02F286810D020F4803083
:101620002860286820F4802028606068A8B1FFF74F
:10163000A7FC06460DE0286840F48030F4E740F44B
:1016400080202860F7E700BFFFF79AFC801B642822
:1016500073D828688003F7D50CE0FFF791FC0646A5
:1016600005E000BFFFF78CFC801B6428F0D82868D9
:101670008003F7D42078DFF8AC8280074FF0000AAF
:101680003ED5A748001D016811F00C0F08D0006876
:10169000C0F3810002280BD1D9F80000400207D422
:1016A0002868800716D5E068012800D112E033E1F0
:1016B000E068B8B10120C8F80000FFF761FC0646F9
:1016C00005E000BFFFF75CFC801B0228C0D828683B
:1016D0008007F7D52868216920F0F80040EAC100AA
:1016E00028600DE0C8F800A0FFF74AFC064604E0B9
:1016F000FFF746FC801B02281FD828688007F7D414
:101700002078000722D5864F87486169703771B10C
:1017100001210160FFF734FC064604E0FFF730FCCE
:10172000801B022809D838688007F7D50EE0C0F87A
:1017300000A0FFF725FC064605E082E0FFF720FC4D
:10174000801B02287DD838688007F7D420784007AE
:1017500068D5DFF8CCB100270BF13C0BDBF80000BB
:10176000C0000BD4DBF8001041F08051CBF8001022
:10177000DBF80000012700F0805000906B4E3068CD
:10178000C00510D4306840F480703060FFF7F8FB7B
:10179000009005E0FFF7F4FB0099401A022850D8AA
:1017A0003068C005F6D55E4EA0686C3601280FD0B3
:1017B0000528306810D020F001003060306820F03B
:1017C00004003060A068B8B1FFF7DAFB00900FE0CA
:1017D000306840F00100F4E740F004003060F7E7C3
:1017E000FFF7CEFB0099411A41F28830814266D85A
:1017F00030688007F4D50EE0FFF7C2FB009007E0E9
:10180000FFF7BEFB0099411A41F28830814256D859
:1018100030688007F4D42FB1DBF8001021F080513C
:10182000CBF80010A069C8B33D49091D0968C1F390
:10183000810102294AD00228504607D0C8F860002A
:1018400000E03CE0FFF79CFB04463BE04746C8F85D
:101850006000FFF795FB064605E000BFFFF790FB31
:10186000801B02282BD828688001F7D4D4E907010F
:101870000843A16A2E4A490802EB0141626A41EA23
:101880008211084394F82C1040EA0161C9F8001055
:1018900001203866FFF774FB044606E03EE000BF17
:1018A000FFF76EFB001B022809D828688001F7D5D6
:1018B00034E000BFFFF764FB001B022802D90320BD
:1018C000BDE8F88F28688001F4D427E00128F7D01C
:1018D000D9F80000E26900F4800191421CD1226A2B
:1018E00000F03F01914217D147F6C071626A014092
:1018F000B1EB821F10D1A26A4FF0FF3300F44031E8
:1019000003EB5202B1EB024F06D194F82C1000F019
:101910007060B0EB016F01D00120D1E70020CFE76C
:101920000438024000004742800E474200700040E9
:101930000000FFFF7047704710B5040003D094F813
:101940003D0010B107E0012010BD002084F83C00EC
:10195000204600F01EF8022084F83D00211D20687A
:1019600000F00EFA012084F8460084F83E0084F866
:101970003F0084F8400084F8410084F8420084F875
:10198000430084F8440084F8450084F83D000020BA
:1019900010BD704790F83D10012901D0012070471B
:1019A000022180F83D100168CA6842F00102CA6055
:1019B00000681149884214D0B0F1804F11D00F490E
:1019C00088420ED00E4988420BD00E49884208D07A
:1019D0000D49884205D00D49884202D00C49884201
:1019E00004D1816801F00701062903D0016841F0A4
:1019F0000101016000207047000001400004004028
:101A000000080040000C004000040140004001407C
:101A100000180040704770B50446006801694FF037
:101A20000005C943890715D4C168C943890711D482
:101A3000E91E016101202077206880698007204627
:101A400002D0FFF7E7FF04E000F098F8204600F02E
:101A500096F8257720680169C943490717D4C168FA
:101A6000C943490713D46FF00401016102202077B4
:101A70002068806910F4407F204602D0FFF7CAFF3B
:101A800004E000F07BF8204600F079F82577206824
:101A90000169C943090716D4C168C943090712D4AB
:101AA0006FF008010161042020772068C069800779
:101AB000204602D0FFF7AEFF04E000F05FF82046BA
:101AC00000F05DF8257720680169C943C90617D47D
:101AD000C168C943C90613D46FF010010161082021
:101AE00020772068C06910F4407F204602D0FFF7BD
:101AF00091FF04E000F042F8204600F040F825771E
:101B000020680169C943C90708D1C168C943C90729
:101B100004D1891E0161204600F032F82068016975
:101B2000C943090609D4C168C943090605D46FF041
:101B3000800101612046FFF7FDFE20680169C9436D
:101B4000490609D4C168C943490605D46FF040016C
:101B50000161204600F01EF820680169C94389062A
:101B60000BD4C168C943890607D46FF02001016115
:101B70002046BDE87040FFF7DEBE70BD704770477D
:101B800000680349884201D1FFF738BB7047000065
:101B9000002000407047FEE77FB500241548009400
:101BA000019402941249039401604FF48031C0E91A
:101BB000011401250461057680F820400E49C0E932
:101BC0000A14C561C46080F830404561FEF7D3FD5A
:101BD00008B172B6FEE7CDE90045694605480294B2
:101BE000FEF714FD002801D072B6FEE77FBD0000AD
:101BF00000200140180000200100000F7FB50024E4
:101C000015480094019402941249039401604FF422
:101C10008031C0E9011401250461057680F8204077
:101C20000E49C0E90A14C561C46080F830404561BE
:101C3000FEF7A1FD08B172B6FEE70320CDE900056D
:101C4000694602940448FEF7E1FC002801D072B610
:101C5000FEE77FBD00210140600000200100000F71
:101C6000134810B5114901601249416000214FF439
:101C700080428160C0E9031241618161C1610162FA
:101C8000FFF7C4F908B172B6FEE700210848FFF774
:101C90007DF908B172B6FEE700210548FFF797F914
:101CA000002801D072B6FEE710BD000000540040CD
:101CB000A8000020A0860100FEE7FEE770477047FD
:101CC0007047000030B593B030216846FEF755FBF1
:101CD00014210CA8FEF751FB20480025016841F0B3
:101CE00080510160006800F0805011901C4801682C
:101CF00041F4404101600068022400F4404011902A
:101D000001200090000401908001CDE906400420EC
:101D10000890B420CDE9090407200B906846FFF72E
:101D200053FC08B172B6FEE7FFF71CFB08B172B6B0
:101D3000FEE70CA90F2081E831004FF4A0500F906E
:101D40004FF48050109005210CA8FFF743FB0028AA
:101D500001D072B6FEE713B030BD0000403802403B
:101D6000007000400248016841F470010160704752
:101D700088ED00E00148FFF74EBE0000BC010020E6
:101D8000F0B50268254C264D264E274F274B4FF0C5
:101D9000804CA04209D0604507D0A84205D0B0428F
:101DA00003D0B84201D0984204D122F0700E4A68A4
:101DB00042EA0E02A0421BD0604519D0A84217D0BB
:101DC000B04215D0B84213D0984211D0184DA84255
:101DD0000ED0184DA8420BD0174DA84208D0174D71
:101DE000A84205D0164DA84202D0164DA84203D1F4
:101DF00022F44075CA682A434D6922F080022A43C2
:101E000002608A68C2620A688262A04201D0984277
:101E100001D10969016301214161F0BD0000014068
:101E20000004004000080040000C00400004014095
:101E300000400140004401400048014000180040BB
:101E4000001C004000200040FEE70907090E0028A2
:101E500004DB00F1E02080F80014704700F00F0070
:101E600000F1E02080F8141D7047000008B5FFF76E
:101E7000CDF9FFF727FF3048016841F0800101608C
:101E8000016801F080010091016841F001010160E9
:101E9000016801F001010091016841F00201016057
:101EA000016801F002010091016841F480010160C4
:101EB0000068002200F48000009011463820FFF7EF
:101EC0001FFA3820FFF70EFA002211463A20FFF7DA
:101ED00017FA3A20FFF706FAFFF75EFEFFF7C0FE9B
:101EE000FFF78CFE154C4FF4FA751548FEF746FDCA
:101EF00064211348FEF7ECFC1148FEF739FC206022
:101F00000F48FEF7B9FD2846FEF70EFF0C48483093
:101F1000FEF734FD0A4864214830FEF7D9FC084832
:101F20004830FEF725FC606005484830FEF7A4FD08
:101F30002846FEF7F9FED8E73038024000000020BE
:101F4000180000204FF04070E1EE100A70470006C4
:101F5000101600061016000000000000000001022C
:101F60000304060708090000000001020304000042
:101F7000901F00080000002018000000E801000881
:101F8000A81F0008180000205008000004020008E4
:101F90000000000000000000010000001000000030
:081FA000000000000024F40021
:04000005080001AD41
:00000001FF
